{
  "contractName": "IndexSwap",
  "abi": [
    {
      "inputs": [],
      "stateMutability": "nonpayable",
      "type": "constructor"
    },
    {
      "inputs": [
        {
          "internalType": "address",
          "name": "",
          "type": "address"
        }
      ],
      "name": "btcBalance",
      "outputs": [
        {
          "internalType": "uint256",
          "name": "",
          "type": "uint256"
        }
      ],
      "stateMutability": "view",
      "type": "function"
    },
    {
      "inputs": [],
      "name": "currentRate",
      "outputs": [
        {
          "internalType": "uint256",
          "name": "numerator",
          "type": "uint256"
        },
        {
          "internalType": "uint256",
          "name": "denominator",
          "type": "uint256"
        }
      ],
      "stateMutability": "view",
      "type": "function"
    },
    {
      "inputs": [
        {
          "internalType": "address",
          "name": "",
          "type": "address"
        }
      ],
      "name": "daiBalance",
      "outputs": [
        {
          "internalType": "uint256",
          "name": "",
          "type": "uint256"
        }
      ],
      "stateMutability": "view",
      "type": "function"
    },
    {
      "inputs": [],
      "name": "defiToken",
      "outputs": [
        {
          "internalType": "contract IToken",
          "name": "",
          "type": "address"
        }
      ],
      "stateMutability": "view",
      "type": "function"
    },
    {
      "inputs": [
        {
          "internalType": "address",
          "name": "",
          "type": "address"
        }
      ],
      "name": "ethBalance",
      "outputs": [
        {
          "internalType": "uint256",
          "name": "",
          "type": "uint256"
        }
      ],
      "stateMutability": "view",
      "type": "function"
    },
    {
      "inputs": [
        {
          "internalType": "address",
          "name": "",
          "type": "address"
        }
      ],
      "name": "linkBalance",
      "outputs": [
        {
          "internalType": "uint256",
          "name": "",
          "type": "uint256"
        }
      ],
      "stateMutability": "view",
      "type": "function"
    },
    {
      "inputs": [
        {
          "internalType": "address",
          "name": "",
          "type": "address"
        }
      ],
      "name": "ltcBalance",
      "outputs": [
        {
          "internalType": "uint256",
          "name": "",
          "type": "uint256"
        }
      ],
      "stateMutability": "view",
      "type": "function"
    },
    {
      "inputs": [
        {
          "internalType": "address",
          "name": "",
          "type": "address"
        }
      ],
      "name": "lunaBalance",
      "outputs": [
        {
          "internalType": "uint256",
          "name": "",
          "type": "uint256"
        }
      ],
      "stateMutability": "view",
      "type": "function"
    },
    {
      "inputs": [],
      "name": "pancakeSwapRouter",
      "outputs": [
        {
          "internalType": "contract IPancakeRouter02",
          "name": "",
          "type": "address"
        }
      ],
      "stateMutability": "view",
      "type": "function"
    },
    {
      "inputs": [
        {
          "internalType": "address",
          "name": "",
          "type": "address"
        }
      ],
      "name": "shibaBalance",
      "outputs": [
        {
          "internalType": "uint256",
          "name": "",
          "type": "uint256"
        }
      ],
      "stateMutability": "view",
      "type": "function"
    },
    {
      "inputs": [
        {
          "internalType": "address",
          "name": "",
          "type": "address"
        }
      ],
      "name": "stethBalance",
      "outputs": [
        {
          "internalType": "uint256",
          "name": "",
          "type": "uint256"
        }
      ],
      "stateMutability": "view",
      "type": "function"
    },
    {
      "inputs": [
        {
          "internalType": "address",
          "name": "",
          "type": "address"
        }
      ],
      "name": "uniBalance",
      "outputs": [
        {
          "internalType": "uint256",
          "name": "",
          "type": "uint256"
        }
      ],
      "stateMutability": "view",
      "type": "function"
    },
    {
      "inputs": [
        {
          "internalType": "address",
          "name": "",
          "type": "address"
        }
      ],
      "name": "xrpBalance",
      "outputs": [
        {
          "internalType": "uint256",
          "name": "",
          "type": "uint256"
        }
      ],
      "stateMutability": "view",
      "type": "function"
    },
    {
      "stateMutability": "payable",
      "type": "receive"
    },
    {
      "inputs": [
        {
          "internalType": "uint256",
          "name": "_numerator",
          "type": "uint256"
        },
        {
          "internalType": "uint256",
          "name": "_denominator",
          "type": "uint256"
        }
      ],
      "name": "updateRate",
      "outputs": [],
      "stateMutability": "nonpayable",
      "type": "function"
    },
    {
      "inputs": [
        {
          "internalType": "uint256",
          "name": "btc",
          "type": "uint256"
        },
        {
          "internalType": "uint256",
          "name": "eth",
          "type": "uint256"
        },
        {
          "internalType": "uint256",
          "name": "shiba",
          "type": "uint256"
        },
        {
          "internalType": "uint256",
          "name": "xrp",
          "type": "uint256"
        },
        {
          "internalType": "uint256",
          "name": "ltc",
          "type": "uint256"
        },
        {
          "internalType": "uint256",
          "name": "dai",
          "type": "uint256"
        },
        {
          "internalType": "uint256",
          "name": "luna",
          "type": "uint256"
        },
        {
          "internalType": "uint256",
          "name": "link",
          "type": "uint256"
        },
        {
          "internalType": "uint256",
          "name": "uni",
          "type": "uint256"
        },
        {
          "internalType": "uint256",
          "name": "steth",
          "type": "uint256"
        },
        {
          "internalType": "address",
          "name": "user",
          "type": "address"
        }
      ],
      "name": "setUpDataDeFi",
      "outputs": [],
      "stateMutability": "nonpayable",
      "type": "function"
    },
    {
      "inputs": [
        {
          "internalType": "uint256",
          "name": "btc",
          "type": "uint256"
        },
        {
          "internalType": "uint256",
          "name": "eth",
          "type": "uint256"
        },
        {
          "internalType": "uint256",
          "name": "shiba",
          "type": "uint256"
        },
        {
          "internalType": "uint256",
          "name": "xrp",
          "type": "uint256"
        },
        {
          "internalType": "uint256",
          "name": "ltc",
          "type": "uint256"
        },
        {
          "internalType": "uint256",
          "name": "dai",
          "type": "uint256"
        },
        {
          "internalType": "uint256",
          "name": "luna",
          "type": "uint256"
        },
        {
          "internalType": "uint256",
          "name": "link",
          "type": "uint256"
        },
        {
          "internalType": "uint256",
          "name": "uni",
          "type": "uint256"
        },
        {
          "internalType": "uint256",
          "name": "steth",
          "type": "uint256"
        },
        {
          "internalType": "address",
          "name": "user",
          "type": "address"
        }
      ],
      "name": "editDataDeFi",
      "outputs": [],
      "stateMutability": "nonpayable",
      "type": "function"
    },
    {
      "inputs": [],
      "name": "investInFundDefi",
      "outputs": [],
      "stateMutability": "payable",
      "type": "function"
    },
    {
      "inputs": [
        {
          "internalType": "uint256",
          "name": "tokenAmount",
          "type": "uint256"
        },
        {
          "internalType": "uint256",
          "name": "percentage",
          "type": "uint256"
        }
      ],
      "name": "withdrawFromFundTOPTokens",
      "outputs": [],
      "stateMutability": "payable",
      "type": "function"
    },
    {
      "inputs": [
        {
          "internalType": "address",
          "name": "crypto",
          "type": "address"
        }
      ],
      "name": "getPathForETH",
      "outputs": [
        {
          "internalType": "address[]",
          "name": "",
          "type": "address[]"
        }
      ],
      "stateMutability": "view",
      "type": "function"
    },
    {
      "inputs": [
        {
          "internalType": "address",
          "name": "token",
          "type": "address"
        }
      ],
      "name": "getPathForToken",
      "outputs": [
        {
          "internalType": "address[]",
          "name": "",
          "type": "address[]"
        }
      ],
      "stateMutability": "view",
      "type": "function"
    },
    {
      "inputs": [],
      "name": "getETH",
      "outputs": [
        {
          "internalType": "address",
          "name": "",
          "type": "address"
        }
      ],
      "stateMutability": "view",
      "type": "function"
    }
  ],
  "bytecode": "0x6080604052736056773c28c258425cf9bc8ba5f86b8031863164600160006101000a81548173ffffffffffffffffffffffffffffffffffffffff021916908373ffffffffffffffffffffffffffffffffffffffff160217905550734b1851167f74ff108a994872a160f1d6772d474b600360006101000a81548173ffffffffffffffffffffffffffffffffffffffff021916908373ffffffffffffffffffffffffffffffffffffffff160217905550738babbb98678facc7342735486c851abd7a0d17ca600460006101000a81548173ffffffffffffffffffffffffffffffffffffffff021916908373ffffffffffffffffffffffffffffffffffffffff16021790555073bf0646fa5abbff6af50a9c40d5e621835219d384600560006101000a81548173ffffffffffffffffffffffffffffffffffffffff021916908373ffffffffffffffffffffffffffffffffffffffff16021790555073cc00177908830ce1644aeb4ad507fda3789128af600660006101000a81548173ffffffffffffffffffffffffffffffffffffffff021916908373ffffffffffffffffffffffffffffffffffffffff160217905550732f9fd65e3bb89b68a8e2abd68db25f5c348f68ee600760006101000a81548173ffffffffffffffffffffffffffffffffffffffff021916908373ffffffffffffffffffffffffffffffffffffffff160217905550738a9424745056eb399fd19a0ec26a14316684e274600860006101000a81548173ffffffffffffffffffffffffffffffffffffffff021916908373ffffffffffffffffffffffffffffffffffffffff160217905550730bbf12a9ccd7cd0e23da21efd3bb16ba807ab069600960006101000a81548173ffffffffffffffffffffffffffffffffffffffff021916908373ffffffffffffffffffffffffffffffffffffffff160217905550738d908a42fd847c80eeb4498de43469882436c8ff600a60006101000a81548173ffffffffffffffffffffffffffffffffffffffff021916908373ffffffffffffffffffffffffffffffffffffffff1602179055507362955c6ca8cd74f8773927b880966b7e70ad4567600b60006101000a81548173ffffffffffffffffffffffffffffffffffffffff021916908373ffffffffffffffffffffffffffffffffffffffff16021790555073b7a58582df45dba8ad346c6a51fdb796d64e0898600c60006101000a81548173ffffffffffffffffffffffffffffffffffffffff021916908373ffffffffffffffffffffffffffffffffffffffff1602179055503480156103b757600080fd5b50739ac64cc6e4415144c455bd8e4837fea55603e5c36000806101000a81548173ffffffffffffffffffffffffffffffffffffffff021916908373ffffffffffffffffffffffffffffffffffffffff16021790555073f70538622598232a95b1ec1914fc878d28ebae68600260006101000a81548173ffffffffffffffffffffffffffffffffffffffff021916908373ffffffffffffffffffffffffffffffffffffffff1602179055506148af806104706000396000f3fe60806040526004361061012e5760003560e01c8063b13f2552116100ab578063d7f7098f1161006f578063d7f7098f1461042d578063d8f3790f1461046a578063dcee6b59146104a7578063e9d1209b146104d0578063ea987a1e1461050d578063f9f8bdb71461053857610135565b8063b13f2552146102fc578063c585f87514610339578063ca0e7ed514610376578063ca91c0e9146103b3578063d20eff43146103f057610135565b8063391bfa74116100f2578063391bfa74146101f3578063405abb41146102305780634453afd7146102595780636fc1c55314610282578063b0849c1c146102bf57610135565b806314f6c3be1461013a57806319effc6814610165578063245589951461016f578063312a97101461019a57806335b9d2db146101b657610135565b3661013557005b600080fd5b34801561014657600080fd5b5061014f610564565b60405161015c91906142e3565b60405180910390f35b61016d61060a565b005b34801561017b57600080fd5b506101846115b9565b6040516101919190614380565b60405180910390f35b6101b460048036038101906101af9190613f64565b6115dd565b005b3480156101c257600080fd5b506101dd60048036038101906101d89190613ea8565b612a74565b6040516101ea9190614462565b60405180910390f35b3480156101ff57600080fd5b5061021a60048036038101906102159190613ea8565b612a8c565b6040516102279190614462565b60405180910390f35b34801561023c57600080fd5b5061025760048036038101906102529190613f64565b612aa4565b005b34801561026557600080fd5b50610280600480360381019061027b9190613fa0565b612ad8565b005b34801561028e57600080fd5b506102a960048036038101906102a49190613ea8565b613071565b6040516102b69190614462565b60405180910390f35b3480156102cb57600080fd5b506102e660048036038101906102e19190613ea8565b613089565b6040516102f3919061435e565b60405180910390f35b34801561030857600080fd5b50610323600480360381019061031e9190613ea8565b61328f565b6040516103309190614462565b60405180910390f35b34801561034557600080fd5b50610360600480360381019061035b9190613ea8565b6132a7565b60405161036d9190614462565b60405180910390f35b34801561038257600080fd5b5061039d60048036038101906103989190613ea8565b6132bf565b6040516103aa919061435e565b60405180910390f35b3480156103bf57600080fd5b506103da60048036038101906103d59190613ea8565b6134c5565b6040516103e79190614462565b60405180910390f35b3480156103fc57600080fd5b5061041760048036038101906104129190613ea8565b6134dd565b6040516104249190614462565b60405180910390f35b34801561043957600080fd5b50610454600480360381019061044f9190613ea8565b6134f5565b6040516104619190614462565b60405180910390f35b34801561047657600080fd5b50610491600480360381019061048c9190613ea8565b61350d565b60405161049e9190614462565b60405180910390f35b3480156104b357600080fd5b506104ce60048036038101906104c99190613fa0565b613525565b005b3480156104dc57600080fd5b506104f760048036038101906104f29190613ea8565b613abe565b6040516105049190614462565b60405180910390f35b34801561051957600080fd5b50610522613ad6565b60405161052f919061439b565b60405180910390f35b34801561054457600080fd5b5061054d613afc565b60405161055b9291906144d7565b60405180910390f35b60008060009054906101000a900473ffffffffffffffffffffffffffffffffffffffff1673ffffffffffffffffffffffffffffffffffffffff1663ad5c46486040518163ffffffff1660e01b815260040160206040518083038186803b1580156105cd57600080fd5b505afa1580156105e1573d6000803e3d6000fd5b505050506040513d601f19601f820116820180604052508101906106059190613ed1565b905090565b600260009054906101000a900473ffffffffffffffffffffffffffffffffffffffff1673ffffffffffffffffffffffffffffffffffffffff1663095ea7b330346040518363ffffffff1660e01b8152600401610667929190614335565b602060405180830381600087803b15801561068157600080fd5b505af1158015610695573d6000803e3d6000fd5b505050506040513d601f19601f820116820180604052508101906106b99190613f3b565b506106c5606480612aa4565b6060806060806060806060806060806000600f426106e391906145bd565b905060008054906101000a900473ffffffffffffffffffffffffffffffffffffffff1673ffffffffffffffffffffffffffffffffffffffff16637ff36ab5600a3461072e9190614613565b600061075b600360009054906101000a900473ffffffffffffffffffffffffffffffffffffffff16613089565b600160009054906101000a900473ffffffffffffffffffffffffffffffffffffffff16866040518663ffffffff1660e01b815260040161079e94939291906143b6565b6000604051808303818588803b1580156107b757600080fd5b505af11580156107cb573d6000803e3d6000fd5b50505050506040513d6000823e3d601f19601f820116820180604052508101906107f59190613efa565b9a5060008054906101000a900473ffffffffffffffffffffffffffffffffffffffff1673ffffffffffffffffffffffffffffffffffffffff16637ff36ab5600a346108409190614613565b600061086d600460009054906101000a900473ffffffffffffffffffffffffffffffffffffffff16613089565b600160009054906101000a900473ffffffffffffffffffffffffffffffffffffffff16866040518663ffffffff1660e01b81526004016108b094939291906143b6565b6000604051808303818588803b1580156108c957600080fd5b505af11580156108dd573d6000803e3d6000fd5b50505050506040513d6000823e3d601f19601f820116820180604052508101906109079190613efa565b995060008054906101000a900473ffffffffffffffffffffffffffffffffffffffff1673ffffffffffffffffffffffffffffffffffffffff16637ff36ab5600a346109529190614613565b600061097f600560009054906101000a900473ffffffffffffffffffffffffffffffffffffffff16613089565b600160009054906101000a900473ffffffffffffffffffffffffffffffffffffffff16866040518663ffffffff1660e01b81526004016109c294939291906143b6565b6000604051808303818588803b1580156109db57600080fd5b505af11580156109ef573d6000803e3d6000fd5b50505050506040513d6000823e3d601f19601f82011682018060405250810190610a199190613efa565b985060008054906101000a900473ffffffffffffffffffffffffffffffffffffffff1673ffffffffffffffffffffffffffffffffffffffff16637ff36ab5600a34610a649190614613565b6000610a91600660009054906101000a900473ffffffffffffffffffffffffffffffffffffffff16613089565b600160009054906101000a900473ffffffffffffffffffffffffffffffffffffffff16866040518663ffffffff1660e01b8152600401610ad494939291906143b6565b6000604051808303818588803b158015610aed57600080fd5b505af1158015610b01573d6000803e3d6000fd5b50505050506040513d6000823e3d601f19601f82011682018060405250810190610b2b9190613efa565b975060008054906101000a900473ffffffffffffffffffffffffffffffffffffffff1673ffffffffffffffffffffffffffffffffffffffff16637ff36ab5600a34610b769190614613565b6000610ba3600760009054906101000a900473ffffffffffffffffffffffffffffffffffffffff16613089565b600160009054906101000a900473ffffffffffffffffffffffffffffffffffffffff16866040518663ffffffff1660e01b8152600401610be694939291906143b6565b6000604051808303818588803b158015610bff57600080fd5b505af1158015610c13573d6000803e3d6000fd5b50505050506040513d6000823e3d601f19601f82011682018060405250810190610c3d9190613efa565b965060008054906101000a900473ffffffffffffffffffffffffffffffffffffffff1673ffffffffffffffffffffffffffffffffffffffff16637ff36ab5600a34610c889190614613565b6000610cb5600860009054906101000a900473ffffffffffffffffffffffffffffffffffffffff16613089565b600160009054906101000a900473ffffffffffffffffffffffffffffffffffffffff16866040518663ffffffff1660e01b8152600401610cf894939291906143b6565b6000604051808303818588803b158015610d1157600080fd5b505af1158015610d25573d6000803e3d6000fd5b50505050506040513d6000823e3d601f19601f82011682018060405250810190610d4f9190613efa565b955060008054906101000a900473ffffffffffffffffffffffffffffffffffffffff1673ffffffffffffffffffffffffffffffffffffffff16637ff36ab5600a34610d9a9190614613565b6000610dc7600960009054906101000a900473ffffffffffffffffffffffffffffffffffffffff16613089565b600160009054906101000a900473ffffffffffffffffffffffffffffffffffffffff16866040518663ffffffff1660e01b8152600401610e0a94939291906143b6565b6000604051808303818588803b158015610e2357600080fd5b505af1158015610e37573d6000803e3d6000fd5b50505050506040513d6000823e3d601f19601f82011682018060405250810190610e619190613efa565b945060008054906101000a900473ffffffffffffffffffffffffffffffffffffffff1673ffffffffffffffffffffffffffffffffffffffff16637ff36ab5600a34610eac9190614613565b6000610ed9600a60009054906101000a900473ffffffffffffffffffffffffffffffffffffffff16613089565b600160009054906101000a900473ffffffffffffffffffffffffffffffffffffffff16866040518663ffffffff1660e01b8152600401610f1c94939291906143b6565b6000604051808303818588803b158015610f3557600080fd5b505af1158015610f49573d6000803e3d6000fd5b50505050506040513d6000823e3d601f19601f82011682018060405250810190610f739190613efa565b935060008054906101000a900473ffffffffffffffffffffffffffffffffffffffff1673ffffffffffffffffffffffffffffffffffffffff16637ff36ab5600a34610fbe9190614613565b6000610feb600b60009054906101000a900473ffffffffffffffffffffffffffffffffffffffff16613089565b600160009054906101000a900473ffffffffffffffffffffffffffffffffffffffff16866040518663ffffffff1660e01b815260040161102e94939291906143b6565b6000604051808303818588803b15801561104757600080fd5b505af115801561105b573d6000803e3d6000fd5b50505050506040513d6000823e3d601f19601f820116820180604052508101906110859190613efa565b925060008054906101000a900473ffffffffffffffffffffffffffffffffffffffff1673ffffffffffffffffffffffffffffffffffffffff16637ff36ab5600a346110d09190614613565b60006110fd600c60009054906101000a900473ffffffffffffffffffffffffffffffffffffffff16613089565b600160009054906101000a900473ffffffffffffffffffffffffffffffffffffffff16866040518663ffffffff1660e01b815260040161114094939291906143b6565b6000604051808303818588803b15801561115957600080fd5b505af115801561116d573d6000803e3d6000fd5b50505050506040513d6000823e3d601f19601f820116820180604052508101906111979190613efa565b91506114368b6001815181106111d6577f4e487b7100000000000000000000000000000000000000000000000000000000600052603260045260246000fd5b60200260200101518b600181518110611218577f4e487b7100000000000000000000000000000000000000000000000000000000600052603260045260246000fd5b60200260200101518b60018151811061125a577f4e487b7100000000000000000000000000000000000000000000000000000000600052603260045260246000fd5b60200260200101518b60018151811061129c577f4e487b7100000000000000000000000000000000000000000000000000000000600052603260045260246000fd5b60200260200101518b6001815181106112de577f4e487b7100000000000000000000000000000000000000000000000000000000600052603260045260246000fd5b60200260200101518b600181518110611320577f4e487b7100000000000000000000000000000000000000000000000000000000600052603260045260246000fd5b60200260200101518b600181518110611362577f4e487b7100000000000000000000000000000000000000000000000000000000600052603260045260246000fd5b60200260200101518b6001815181106113a4577f4e487b7100000000000000000000000000000000000000000000000000000000600052603260045260246000fd5b60200260200101518b6001815181106113e6577f4e487b7100000000000000000000000000000000000000000000000000000000600052603260045260246000fd5b60200260200101518b600181518110611428577f4e487b7100000000000000000000000000000000000000000000000000000000600052603260045260246000fd5b602002602001015133612ad8565b6000349050600061146c60186001015461145e60186000015485613b0e90919063ffffffff16565b613b2490919063ffffffff16565b9050600260009054906101000a900473ffffffffffffffffffffffffffffffffffffffff1673ffffffffffffffffffffffffffffffffffffffff166340c10f1933836040518363ffffffff1660e01b81526004016114cb929190614335565b600060405180830381600087803b1580156114e557600080fd5b505af11580156114f9573d6000803e3d6000fd5b5050505060003373ffffffffffffffffffffffffffffffffffffffff1647604051611523906142ce565b60006040518083038185875af1925050503d8060008114611560576040519150601f19603f3d011682016040523d82523d6000602084013e611565565b606091505b50509050806115a9576040517f08c379a00000000000000000000000000000000000000000000000000000000081526004016115a090614442565b60405180910390fd5b5050505050505050505050505050565b60008054906101000a900473ffffffffffffffffffffffffffffffffffffffff1681565b6000811180156115ee575060648111155b6115f757600080fd5b611625600260009054906101000a900473ffffffffffffffffffffffffffffffffffffffff16333085613b3a565b611652600260009054906101000a900473ffffffffffffffffffffffffffffffffffffffff163084613c73565b600260009054906101000a900473ffffffffffffffffffffffffffffffffffffffff1673ffffffffffffffffffffffffffffffffffffffff16639dc29fac30846040518363ffffffff1660e01b81526004016116af929190614335565b600060405180830381600087803b1580156116c957600080fd5b505af11580156116dd573d6000803e3d6000fd5b50505050600061173582600d60003373ffffffffffffffffffffffffffffffffffffffff1673ffffffffffffffffffffffffffffffffffffffff16815260200190815260200160002054613b0e90919063ffffffff16565b9050600061178b83600e60003373ffffffffffffffffffffffffffffffffffffffff1673ffffffffffffffffffffffffffffffffffffffff16815260200190815260200160002054613b0e90919063ffffffff16565b905060006117e184600f60003373ffffffffffffffffffffffffffffffffffffffff1673ffffffffffffffffffffffffffffffffffffffff16815260200190815260200160002054613b0e90919063ffffffff16565b9050600061183785601060003373ffffffffffffffffffffffffffffffffffffffff1673ffffffffffffffffffffffffffffffffffffffff16815260200190815260200160002054613b0e90919063ffffffff16565b9050600061188d86601160003373ffffffffffffffffffffffffffffffffffffffff1673ffffffffffffffffffffffffffffffffffffffff16815260200190815260200160002054613b0e90919063ffffffff16565b905060006118e387601260003373ffffffffffffffffffffffffffffffffffffffff1673ffffffffffffffffffffffffffffffffffffffff16815260200190815260200160002054613b0e90919063ffffffff16565b9050600061193988601360003373ffffffffffffffffffffffffffffffffffffffff1673ffffffffffffffffffffffffffffffffffffffff16815260200190815260200160002054613b0e90919063ffffffff16565b9050600061198f89601460003373ffffffffffffffffffffffffffffffffffffffff1673ffffffffffffffffffffffffffffffffffffffff16815260200190815260200160002054613b0e90919063ffffffff16565b905060006119e58a601560003373ffffffffffffffffffffffffffffffffffffffff1673ffffffffffffffffffffffffffffffffffffffff16815260200190815260200160002054613b0e90919063ffffffff16565b90506000611a3b8b601660003373ffffffffffffffffffffffffffffffffffffffff1673ffffffffffffffffffffffffffffffffffffffff16815260200190815260200160002054613b0e90919063ffffffff16565b90506000611a5360648c613b2490919063ffffffff16565b90506000611a6b60648c613b2490919063ffffffff16565b90506000611a8360648c613b2490919063ffffffff16565b90506000611a9b60648c613b2490919063ffffffff16565b90506000611ab360648c613b2490919063ffffffff16565b90506000611acb60648c613b2490919063ffffffff16565b90506000611ae360648c613b2490919063ffffffff16565b90506000611afb60648c613b2490919063ffffffff16565b90506000611b1360648c613b2490919063ffffffff16565b90506000611b2b60648c613b2490919063ffffffff16565b9050611b7d600360009054906101000a900473ffffffffffffffffffffffffffffffffffffffff16600160009054906101000a900473ffffffffffffffffffffffffffffffffffffffff16308d613b3a565b611bca600360009054906101000a900473ffffffffffffffffffffffffffffffffffffffff1660008054906101000a900473ffffffffffffffffffffffffffffffffffffffff168c613c73565b611c1a600460009054906101000a900473ffffffffffffffffffffffffffffffffffffffff16600160009054906101000a900473ffffffffffffffffffffffffffffffffffffffff16308c613b3a565b611c67600460009054906101000a900473ffffffffffffffffffffffffffffffffffffffff1660008054906101000a900473ffffffffffffffffffffffffffffffffffffffff168b613c73565b611cb7600560009054906101000a900473ffffffffffffffffffffffffffffffffffffffff16600160009054906101000a900473ffffffffffffffffffffffffffffffffffffffff16308b613b3a565b611d04600560009054906101000a900473ffffffffffffffffffffffffffffffffffffffff1660008054906101000a900473ffffffffffffffffffffffffffffffffffffffff168a613c73565b611d54600660009054906101000a900473ffffffffffffffffffffffffffffffffffffffff16600160009054906101000a900473ffffffffffffffffffffffffffffffffffffffff16308a613b3a565b611da1600660009054906101000a900473ffffffffffffffffffffffffffffffffffffffff1660008054906101000a900473ffffffffffffffffffffffffffffffffffffffff1689613c73565b611df1600760009054906101000a900473ffffffffffffffffffffffffffffffffffffffff16600160009054906101000a900473ffffffffffffffffffffffffffffffffffffffff163089613b3a565b611e3e600760009054906101000a900473ffffffffffffffffffffffffffffffffffffffff1660008054906101000a900473ffffffffffffffffffffffffffffffffffffffff1687613c73565b611e8e600860009054906101000a900473ffffffffffffffffffffffffffffffffffffffff16600160009054906101000a900473ffffffffffffffffffffffffffffffffffffffff163088613b3a565b611edb600860009054906101000a900473ffffffffffffffffffffffffffffffffffffffff1660008054906101000a900473ffffffffffffffffffffffffffffffffffffffff1687613c73565b611f2b600960009054906101000a900473ffffffffffffffffffffffffffffffffffffffff16600160009054906101000a900473ffffffffffffffffffffffffffffffffffffffff163087613b3a565b611f78600960009054906101000a900473ffffffffffffffffffffffffffffffffffffffff1660008054906101000a900473ffffffffffffffffffffffffffffffffffffffff1686613c73565b611fc8600a60009054906101000a900473ffffffffffffffffffffffffffffffffffffffff16600160009054906101000a900473ffffffffffffffffffffffffffffffffffffffff163086613b3a565b612015600a60009054906101000a900473ffffffffffffffffffffffffffffffffffffffff1660008054906101000a900473ffffffffffffffffffffffffffffffffffffffff1685613c73565b612065600b60009054906101000a900473ffffffffffffffffffffffffffffffffffffffff16600160009054906101000a900473ffffffffffffffffffffffffffffffffffffffff163085613b3a565b6120b2600b60009054906101000a900473ffffffffffffffffffffffffffffffffffffffff1660008054906101000a900473ffffffffffffffffffffffffffffffffffffffff1684613c73565b612102600c60009054906101000a900473ffffffffffffffffffffffffffffffffffffffff16600160009054906101000a900473ffffffffffffffffffffffffffffffffffffffff163084613b3a565b61214f600c60009054906101000a900473ffffffffffffffffffffffffffffffffffffffff1660008054906101000a900473ffffffffffffffffffffffffffffffffffffffff1683613c73565b6000600f4261215e91906145bd565b905060008054906101000a900473ffffffffffffffffffffffffffffffffffffffff1673ffffffffffffffffffffffffffffffffffffffff166318cbafe58c60006121ca600360009054906101000a900473ffffffffffffffffffffffffffffffffffffffff166132bf565b33866040518663ffffffff1660e01b81526004016121ec95949392919061447d565b600060405180830381600087803b15801561220657600080fd5b505af115801561221a573d6000803e3d6000fd5b505050506040513d6000823e3d601f19601f820116820180604052508101906122439190613efa565b5060008054906101000a900473ffffffffffffffffffffffffffffffffffffffff1673ffffffffffffffffffffffffffffffffffffffff166318cbafe58b60006122ae600460009054906101000a900473ffffffffffffffffffffffffffffffffffffffff166132bf565b33866040518663ffffffff1660e01b81526004016122d095949392919061447d565b600060405180830381600087803b1580156122ea57600080fd5b505af11580156122fe573d6000803e3d6000fd5b505050506040513d6000823e3d601f19601f820116820180604052508101906123279190613efa565b5060008054906101000a900473ffffffffffffffffffffffffffffffffffffffff1673ffffffffffffffffffffffffffffffffffffffff166318cbafe58a6000612392600560009054906101000a900473ffffffffffffffffffffffffffffffffffffffff166132bf565b33866040518663ffffffff1660e01b81526004016123b495949392919061447d565b600060405180830381600087803b1580156123ce57600080fd5b505af11580156123e2573d6000803e3d6000fd5b505050506040513d6000823e3d601f19601f8201168201806040525081019061240b9190613efa565b5060008054906101000a900473ffffffffffffffffffffffffffffffffffffffff1673ffffffffffffffffffffffffffffffffffffffff166318cbafe5896000612476600660009054906101000a900473ffffffffffffffffffffffffffffffffffffffff166132bf565b33866040518663ffffffff1660e01b815260040161249895949392919061447d565b600060405180830381600087803b1580156124b257600080fd5b505af11580156124c6573d6000803e3d6000fd5b505050506040513d6000823e3d601f19601f820116820180604052508101906124ef9190613efa565b5060008054906101000a900473ffffffffffffffffffffffffffffffffffffffff1673ffffffffffffffffffffffffffffffffffffffff166318cbafe588600061255a600760009054906101000a900473ffffffffffffffffffffffffffffffffffffffff166132bf565b33866040518663ffffffff1660e01b815260040161257c95949392919061447d565b600060405180830381600087803b15801561259657600080fd5b505af11580156125aa573d6000803e3d6000fd5b505050506040513d6000823e3d601f19601f820116820180604052508101906125d39190613efa565b5060008054906101000a900473ffffffffffffffffffffffffffffffffffffffff1673ffffffffffffffffffffffffffffffffffffffff166318cbafe587600061263e600860009054906101000a900473ffffffffffffffffffffffffffffffffffffffff166132bf565b33866040518663ffffffff1660e01b815260040161266095949392919061447d565b600060405180830381600087803b15801561267a57600080fd5b505af115801561268e573d6000803e3d6000fd5b505050506040513d6000823e3d601f19601f820116820180604052508101906126b79190613efa565b5060008054906101000a900473ffffffffffffffffffffffffffffffffffffffff1673ffffffffffffffffffffffffffffffffffffffff166318cbafe5866000612722600960009054906101000a900473ffffffffffffffffffffffffffffffffffffffff166132bf565b33866040518663ffffffff1660e01b815260040161274495949392919061447d565b600060405180830381600087803b15801561275e57600080fd5b505af1158015612772573d6000803e3d6000fd5b505050506040513d6000823e3d601f19601f8201168201806040525081019061279b9190613efa565b5060008054906101000a900473ffffffffffffffffffffffffffffffffffffffff1673ffffffffffffffffffffffffffffffffffffffff166318cbafe5856000612806600a60009054906101000a900473ffffffffffffffffffffffffffffffffffffffff166132bf565b33866040518663ffffffff1660e01b815260040161282895949392919061447d565b600060405180830381600087803b15801561284257600080fd5b505af1158015612856573d6000803e3d6000fd5b505050506040513d6000823e3d601f19601f8201168201806040525081019061287f9190613efa565b5060008054906101000a900473ffffffffffffffffffffffffffffffffffffffff1673ffffffffffffffffffffffffffffffffffffffff166318cbafe58460006128ea600b60009054906101000a900473ffffffffffffffffffffffffffffffffffffffff166132bf565b33866040518663ffffffff1660e01b815260040161290c95949392919061447d565b600060405180830381600087803b15801561292657600080fd5b505af115801561293a573d6000803e3d6000fd5b505050506040513d6000823e3d601f19601f820116820180604052508101906129639190613efa565b5060008054906101000a900473ffffffffffffffffffffffffffffffffffffffff1673ffffffffffffffffffffffffffffffffffffffff166318cbafe58360006129ce600c60009054906101000a900473ffffffffffffffffffffffffffffffffffffffff166132bf565b33866040518663ffffffff1660e01b81526004016129f095949392919061447d565b600060405180830381600087803b158015612a0a57600080fd5b505af1158015612a1e573d6000803e3d6000fd5b505050506040513d6000823e3d601f19601f82011682018060405250810190612a479190613efa565b50612a5b8b8b8b8b8b8b8b8b8b8b33613525565b5050505050505050505050505050505050505050505050565b600f6020528060005260406000206000915090505481565b600d6020528060005260406000206000915090505481565b6000821415612ab257600080fd5b6000811415612ac057600080fd5b81601860000181905550806018600101819055505050565b8a600d60008373ffffffffffffffffffffffffffffffffffffffff1673ffffffffffffffffffffffffffffffffffffffff16815260200190815260200160002054612b2391906145bd565b600d60008373ffffffffffffffffffffffffffffffffffffffff1673ffffffffffffffffffffffffffffffffffffffff1681526020019081526020016000208190555089600e60008373ffffffffffffffffffffffffffffffffffffffff1673ffffffffffffffffffffffffffffffffffffffff16815260200190815260200160002054612bb191906145bd565b600e60008373ffffffffffffffffffffffffffffffffffffffff1673ffffffffffffffffffffffffffffffffffffffff1681526020019081526020016000208190555088600f60008373ffffffffffffffffffffffffffffffffffffffff1673ffffffffffffffffffffffffffffffffffffffff16815260200190815260200160002054612c3f91906145bd565b600f60008373ffffffffffffffffffffffffffffffffffffffff1673ffffffffffffffffffffffffffffffffffffffff1681526020019081526020016000208190555087601060008373ffffffffffffffffffffffffffffffffffffffff1673ffffffffffffffffffffffffffffffffffffffff16815260200190815260200160002054612ccd91906145bd565b601060008373ffffffffffffffffffffffffffffffffffffffff1673ffffffffffffffffffffffffffffffffffffffff1681526020019081526020016000208190555086601160008373ffffffffffffffffffffffffffffffffffffffff1673ffffffffffffffffffffffffffffffffffffffff16815260200190815260200160002054612d5b91906145bd565b601160008373ffffffffffffffffffffffffffffffffffffffff1673ffffffffffffffffffffffffffffffffffffffff1681526020019081526020016000208190555085601260008373ffffffffffffffffffffffffffffffffffffffff1673ffffffffffffffffffffffffffffffffffffffff16815260200190815260200160002054612de991906145bd565b601260008373ffffffffffffffffffffffffffffffffffffffff1673ffffffffffffffffffffffffffffffffffffffff1681526020019081526020016000208190555084601360008373ffffffffffffffffffffffffffffffffffffffff1673ffffffffffffffffffffffffffffffffffffffff16815260200190815260200160002054612e7791906145bd565b601360008373ffffffffffffffffffffffffffffffffffffffff1673ffffffffffffffffffffffffffffffffffffffff1681526020019081526020016000208190555083601460008373ffffffffffffffffffffffffffffffffffffffff1673ffffffffffffffffffffffffffffffffffffffff16815260200190815260200160002054612f0591906145bd565b601460008373ffffffffffffffffffffffffffffffffffffffff1673ffffffffffffffffffffffffffffffffffffffff1681526020019081526020016000208190555082601560008373ffffffffffffffffffffffffffffffffffffffff1673ffffffffffffffffffffffffffffffffffffffff16815260200190815260200160002054612f9391906145bd565b601560008373ffffffffffffffffffffffffffffffffffffffff1673ffffffffffffffffffffffffffffffffffffffff1681526020019081526020016000208190555081601660008373ffffffffffffffffffffffffffffffffffffffff1673ffffffffffffffffffffffffffffffffffffffff1681526020019081526020016000205461302191906145bd565b601660008373ffffffffffffffffffffffffffffffffffffffff1673ffffffffffffffffffffffffffffffffffffffff168152602001908152602001600020819055505050505050505050505050565b60156020528060005260406000206000915090505481565b60606000600267ffffffffffffffff8111156130ce577f4e487b7100000000000000000000000000000000000000000000000000000000600052604160045260246000fd5b6040519080825280602002602001820160405280156130fc5781602001602082028036833780820191505090505b50905060008054906101000a900473ffffffffffffffffffffffffffffffffffffffff1673ffffffffffffffffffffffffffffffffffffffff1663ad5c46486040518163ffffffff1660e01b815260040160206040518083038186803b15801561316557600080fd5b505afa158015613179573d6000803e3d6000fd5b505050506040513d601f19601f8201168201806040525081019061319d9190613ed1565b816000815181106131d7577f4e487b7100000000000000000000000000000000000000000000000000000000600052603260045260246000fd5b602002602001019073ffffffffffffffffffffffffffffffffffffffff16908173ffffffffffffffffffffffffffffffffffffffff1681525050828160018151811061324c577f4e487b7100000000000000000000000000000000000000000000000000000000600052603260045260246000fd5b602002602001019073ffffffffffffffffffffffffffffffffffffffff16908173ffffffffffffffffffffffffffffffffffffffff168152505080915050919050565b60146020528060005260406000206000915090505481565b60116020528060005260406000206000915090505481565b60606000600267ffffffffffffffff811115613304577f4e487b7100000000000000000000000000000000000000000000000000000000600052604160045260246000fd5b6040519080825280602002602001820160405280156133325781602001602082028036833780820191505090505b5090508281600081518110613370577f4e487b7100000000000000000000000000000000000000000000000000000000600052603260045260246000fd5b602002602001019073ffffffffffffffffffffffffffffffffffffffff16908173ffffffffffffffffffffffffffffffffffffffff168152505060008054906101000a900473ffffffffffffffffffffffffffffffffffffffff1673ffffffffffffffffffffffffffffffffffffffff1663ad5c46486040518163ffffffff1660e01b815260040160206040518083038186803b15801561341057600080fd5b505afa158015613424573d6000803e3d6000fd5b505050506040513d601f19601f820116820180604052508101906134489190613ed1565b81600181518110613482577f4e487b7100000000000000000000000000000000000000000000000000000000600052603260045260246000fd5b602002602001019073ffffffffffffffffffffffffffffffffffffffff16908173ffffffffffffffffffffffffffffffffffffffff168152505080915050919050565b60106020528060005260406000206000915090505481565b60166020528060005260406000206000915090505481565b60126020528060005260406000206000915090505481565b600e6020528060005260406000206000915090505481565b8a600d60008373ffffffffffffffffffffffffffffffffffffffff1673ffffffffffffffffffffffffffffffffffffffff16815260200190815260200160002054613570919061469e565b600d60008373ffffffffffffffffffffffffffffffffffffffff1673ffffffffffffffffffffffffffffffffffffffff1681526020019081526020016000208190555089600e60008373ffffffffffffffffffffffffffffffffffffffff1673ffffffffffffffffffffffffffffffffffffffff168152602001908152602001600020546135fe919061469e565b600e60008373ffffffffffffffffffffffffffffffffffffffff1673ffffffffffffffffffffffffffffffffffffffff1681526020019081526020016000208190555088600f60008373ffffffffffffffffffffffffffffffffffffffff1673ffffffffffffffffffffffffffffffffffffffff1681526020019081526020016000205461368c919061469e565b600f60008373ffffffffffffffffffffffffffffffffffffffff1673ffffffffffffffffffffffffffffffffffffffff1681526020019081526020016000208190555087601060008373ffffffffffffffffffffffffffffffffffffffff1673ffffffffffffffffffffffffffffffffffffffff1681526020019081526020016000205461371a919061469e565b601060008373ffffffffffffffffffffffffffffffffffffffff1673ffffffffffffffffffffffffffffffffffffffff1681526020019081526020016000208190555086601160008373ffffffffffffffffffffffffffffffffffffffff1673ffffffffffffffffffffffffffffffffffffffff168152602001908152602001600020546137a8919061469e565b601160008373ffffffffffffffffffffffffffffffffffffffff1673ffffffffffffffffffffffffffffffffffffffff1681526020019081526020016000208190555085601260008373ffffffffffffffffffffffffffffffffffffffff1673ffffffffffffffffffffffffffffffffffffffff16815260200190815260200160002054613836919061469e565b601260008373ffffffffffffffffffffffffffffffffffffffff1673ffffffffffffffffffffffffffffffffffffffff1681526020019081526020016000208190555084601360008373ffffffffffffffffffffffffffffffffffffffff1673ffffffffffffffffffffffffffffffffffffffff168152602001908152602001600020546138c4919061469e565b601360008373ffffffffffffffffffffffffffffffffffffffff1673ffffffffffffffffffffffffffffffffffffffff1681526020019081526020016000208190555083601460008373ffffffffffffffffffffffffffffffffffffffff1673ffffffffffffffffffffffffffffffffffffffff16815260200190815260200160002054613952919061469e565b601460008373ffffffffffffffffffffffffffffffffffffffff1673ffffffffffffffffffffffffffffffffffffffff1681526020019081526020016000208190555082601560008373ffffffffffffffffffffffffffffffffffffffff1673ffffffffffffffffffffffffffffffffffffffff168152602001908152602001600020546139e0919061469e565b601560008373ffffffffffffffffffffffffffffffffffffffff1673ffffffffffffffffffffffffffffffffffffffff1681526020019081526020016000208190555081601660008373ffffffffffffffffffffffffffffffffffffffff1673ffffffffffffffffffffffffffffffffffffffff16815260200190815260200160002054613a6e919061469e565b601660008373ffffffffffffffffffffffffffffffffffffffff1673ffffffffffffffffffffffffffffffffffffffff168152602001908152602001600020819055505050505050505050505050565b60136020528060005260406000206000915090505481565b600260009054906101000a900473ffffffffffffffffffffffffffffffffffffffff1681565b60188060000154908060010154905082565b60008183613b1c9190614644565b905092915050565b60008183613b329190614613565b905092915050565b6000808573ffffffffffffffffffffffffffffffffffffffff166323b872dd868686604051602401613b6e939291906142fe565b6040516020818303038152906040529060e01b6020820180517bffffffffffffffffffffffffffffffffffffffffffffffffffffffff8381831617835250505050604051613bbc91906142b7565b6000604051808303816000865af19150503d8060008114613bf9576040519150601f19603f3d011682016040523d82523d6000602084013e613bfe565b606091505b5091509150818015613c2c5750600081511480613c2b575080806020019051810190613c2a9190613f3b565b5b5b613c6b576040517f08c379a0000000000000000000000000000000000000000000000000000000008152600401613c6290614402565b60405180910390fd5b505050505050565b6000808473ffffffffffffffffffffffffffffffffffffffff1663095ea7b38585604051602401613ca5929190614335565b6040516020818303038152906040529060e01b6020820180517bffffffffffffffffffffffffffffffffffffffffffffffffffffffff8381831617835250505050604051613cf391906142b7565b6000604051808303816000865af19150503d8060008114613d30576040519150601f19603f3d011682016040523d82523d6000602084013e613d35565b606091505b5091509150818015613d635750600081511480613d62575080806020019051810190613d619190613f3b565b5b5b613da2576040517f08c379a0000000000000000000000000000000000000000000000000000000008152600401613d9990614422565b60405180910390fd5b5050505050565b6000613dbc613db784614531565b614500565b90508083825260208201905082856020860282011115613ddb57600080fd5b60005b85811015613e0b5781613df18882613e93565b845260208401935060208301925050600181019050613dde565b5050509392505050565b600081359050613e2481614834565b92915050565b600081519050613e3981614834565b92915050565b600082601f830112613e5057600080fd5b8151613e60848260208601613da9565b91505092915050565b600081519050613e788161484b565b92915050565b600081359050613e8d81614862565b92915050565b600081519050613ea281614862565b92915050565b600060208284031215613eba57600080fd5b6000613ec884828501613e15565b91505092915050565b600060208284031215613ee357600080fd5b6000613ef184828501613e2a565b91505092915050565b600060208284031215613f0c57600080fd5b600082015167ffffffffffffffff811115613f2657600080fd5b613f3284828501613e3f565b91505092915050565b600060208284031215613f4d57600080fd5b6000613f5b84828501613e69565b91505092915050565b60008060408385031215613f7757600080fd5b6000613f8585828601613e7e565b9250506020613f9685828601613e7e565b9150509250929050565b60008060008060008060008060008060006101608c8e031215613fc257600080fd5b6000613fd08e828f01613e7e565b9b50506020613fe18e828f01613e7e565b9a50506040613ff28e828f01613e7e565b99505060606140038e828f01613e7e565b98505060806140148e828f01613e7e565b97505060a06140258e828f01613e7e565b96505060c06140368e828f01613e7e565b95505060e06140478e828f01613e7e565b9450506101006140598e828f01613e7e565b93505061012061406b8e828f01613e7e565b92505061014061407d8e828f01613e15565b9150509295989b509295989b9093969950565b600061409c83836140a8565b60208301905092915050565b6140b1816146d2565b82525050565b6140c0816146d2565b82525050565b60006140d18261456d565b6140db8185614590565b93506140e68361455d565b8060005b838110156141175781516140fe8882614090565b975061410983614583565b9250506001810190506140ea565b5085935050505092915050565b600061412f82614578565b61413981856145a1565b9350614149818560208601614774565b80840191505092915050565b61415e8161471a565b82525050565b61416d8161473e565b82525050565b61417c81614762565b82525050565b600061418f6031836145ac565b91507f5472616e7366657248656c7065723a3a7472616e7366657246726f6d3a20747260008301527f616e7366657246726f6d206661696c65640000000000000000000000000000006020830152604082019050919050565b60006141f5602b836145ac565b91507f5472616e7366657248656c7065723a3a73616665417070726f76653a2061707060008301527f726f7665206661696c65640000000000000000000000000000000000000000006020830152604082019050919050565b600061425b6000836145a1565b9150600082019050919050565b6000614275600d836145ac565b91507f726566756e64206661696c6564000000000000000000000000000000000000006000830152602082019050919050565b6142b181614710565b82525050565b60006142c38284614124565b915081905092915050565b60006142d98261424e565b9150819050919050565b60006020820190506142f860008301846140b7565b92915050565b600060608201905061431360008301866140b7565b61432060208301856140b7565b61432d60408301846142a8565b949350505050565b600060408201905061434a60008301856140b7565b61435760208301846142a8565b9392505050565b6000602082019050818103600083015261437881846140c6565b905092915050565b60006020820190506143956000830184614155565b92915050565b60006020820190506143b06000830184614164565b92915050565b60006080820190506143cb6000830187614173565b81810360208301526143dd81866140c6565b90506143ec60408301856140b7565b6143f960608301846142a8565b95945050505050565b6000602082019050818103600083015261441b81614182565b9050919050565b6000602082019050818103600083015261443b816141e8565b9050919050565b6000602082019050818103600083015261445b81614268565b9050919050565b600060208201905061447760008301846142a8565b92915050565b600060a08201905061449260008301886142a8565b61449f6020830187614173565b81810360408301526144b181866140c6565b90506144c060608301856140b7565b6144cd60808301846142a8565b9695505050505050565b60006040820190506144ec60008301856142a8565b6144f960208301846142a8565b9392505050565b6000604051905081810181811067ffffffffffffffff8211171561452757614526614805565b5b8060405250919050565b600067ffffffffffffffff82111561454c5761454b614805565b5b602082029050602081019050919050565b6000819050602082019050919050565b600081519050919050565b600081519050919050565b6000602082019050919050565b600082825260208201905092915050565b600081905092915050565b600082825260208201905092915050565b60006145c882614710565b91506145d383614710565b9250827fffffffffffffffffffffffffffffffffffffffffffffffffffffffffffffffff03821115614608576146076147a7565b5b828201905092915050565b600061461e82614710565b915061462983614710565b925082614639576146386147d6565b5b828204905092915050565b600061464f82614710565b915061465a83614710565b9250817fffffffffffffffffffffffffffffffffffffffffffffffffffffffffffffffff0483118215151615614693576146926147a7565b5b828202905092915050565b60006146a982614710565b91506146b483614710565b9250828210156146c7576146c66147a7565b5b828203905092915050565b60006146dd826146f0565b9050919050565b60008115159050919050565b600073ffffffffffffffffffffffffffffffffffffffff82169050919050565b6000819050919050565b60006147258261472c565b9050919050565b6000614737826146f0565b9050919050565b600061474982614750565b9050919050565b600061475b826146f0565b9050919050565b600061476d82614710565b9050919050565b60005b83811015614792578082015181840152602081019050614777565b838111156147a1576000848401525b50505050565b7f4e487b7100000000000000000000000000000000000000000000000000000000600052601160045260246000fd5b7f4e487b7100000000000000000000000000000000000000000000000000000000600052601260045260246000fd5b7f4e487b7100000000000000000000000000000000000000000000000000000000600052604160045260246000fd5b61483d816146d2565b811461484857600080fd5b50565b614854816146e4565b811461485f57600080fd5b50565b61486b81614710565b811461487657600080fd5b5056fea26469706673582212208e389afbf0779dfc781e0f36c18f0d8a7674bf7ad13a765f7cea9eea3d7278da64736f6c63430008000033",
  "immutableReferences": {},
  "source": "// SPDX-License-Identifier: BSD-3-Clause\npragma solidity >=0.4.22 <0.9.0;\n\nimport \"./IPancakeRouter02.sol\";\nimport \"@openzeppelin/contracts/utils/math/SafeMath.sol\";\nimport \"@openzeppelin/contracts/access/Ownable.sol\";\nimport \"@openzeppelin/contracts/token/ERC20/IERC20.sol\";\nimport \"./IToken.sol\";\nimport \"@uniswap/lib/contracts/libraries/TransferHelper.sol\";\n\ncontract IndexSwap {\n    address internal constant pancakeSwapAddress =\n        0x9Ac64Cc6e4415144C455BD8E4837Fea55603e5c3; //Router for pancake bsc testnet\n    // address internal constant pancakeSwapAddress = 0x10ED43C718714eb63d5aA57B78B54704E256024E; //Router for bsc mainnet\n    IPancakeRouter02 public pancakeSwapRouter;\n\n    address private vault = 0x6056773C28c258425Cf9BC8Ba5f86B8031863164;\n\n    IToken public defiToken;\n\n    using SafeMath for uint256;\n\n    //address private crypto1 = 0x419816F160C9bf1Bb8F297d17E1bF44207B9E06C; // BTC\n    address private crypto1 = 0x4b1851167f74FF108A994872A160f1D6772d474b; // BTC\n    address private crypto2 = 0x8BaBbB98678facC7342735486C851ABD7A0d17Ca; // ETH -- already existed\n    address private crypto3 = 0xBf0646Fa5ABbFf6Af50a9C40D5E621835219d384; // SHIBA\n    address private crypto4 = 0xCc00177908830cE1644AEB4aD507Fda3789128Af; // XRP\n    address private crypto5 = 0x2F9fd65E3BB89b68a8e2Abd68Db25F5C348F68Ee; // LTC\n    address private crypto6 = 0x8a9424745056Eb399FD19a0EC26A14316684e274; // DAI -- already existed\n    address private crypto7 = 0x0bBF12a9Ccd7cD0E23dA21eFd3bb16ba807ab069; // LUNA\n    address private crypto8 = 0x8D908A42FD847c80Eeb4498dE43469882436c8FF; // LINK\n    address private crypto9 = 0x62955C6cA8Cd74F8773927B880966B7e70aD4567; // UNI\n    address private crypto10 = 0xb7a58582Df45DBa8Ad346c6A51fdb796D64e0898; // STETH\n\n    mapping(address => uint256) public btcBalance;\n    mapping(address => uint256) public ethBalance;\n    mapping(address => uint256) public shibaBalance;\n    mapping(address => uint256) public xrpBalance;\n    mapping(address => uint256) public ltcBalance;\n    mapping(address => uint256) public daiBalance;\n    mapping(address => uint256) public lunaBalance;\n    mapping(address => uint256) public linkBalance;\n    mapping(address => uint256) public uniBalance;\n    mapping(address => uint256) public stethBalance;\n\n    struct rate {\n        uint256 numerator;\n        uint256 denominator;\n    }\n    mapping(address => uint256) admins;\n    rate public currentRate;\n\n    constructor() {\n        pancakeSwapRouter = IPancakeRouter02(pancakeSwapAddress);\n        defiToken = IToken(0xF70538622598232a95B1EC1914Fc878d28EBAE68);\n    }\n\n    function updateRate(uint256 _numerator, uint256 _denominator) public {\n        require(_numerator != 0);\n        require(_denominator != 0);\n        currentRate.numerator = _numerator;\n        currentRate.denominator = _denominator;\n    }\n\n    function setUpDataDeFi(\n        uint256 btc,\n        uint256 eth,\n        uint256 shiba,\n        uint256 xrp,\n        uint256 ltc,\n        uint256 dai,\n        uint256 luna,\n        uint256 link,\n        uint256 uni,\n        uint256 steth,\n        address user\n    ) public {\n        btcBalance[user] = btcBalance[user] + btc;\n        ethBalance[user] = ethBalance[user] + eth;\n        shibaBalance[user] = shibaBalance[user] + shiba;\n        xrpBalance[user] = xrpBalance[user] + xrp;\n        ltcBalance[user] = ltcBalance[user] + ltc;\n        daiBalance[user] = daiBalance[user] + dai;\n        lunaBalance[user] = lunaBalance[user] + luna;\n        linkBalance[user] = linkBalance[user] + link;\n        uniBalance[user] = uniBalance[user] + uni;\n        stethBalance[user] = stethBalance[user] + steth;\n    }\n\n    function editDataDeFi(\n        uint256 btc,\n        uint256 eth,\n        uint256 shiba,\n        uint256 xrp,\n        uint256 ltc,\n        uint256 dai,\n        uint256 luna,\n        uint256 link,\n        uint256 uni,\n        uint256 steth,\n        address user\n    ) public {\n        btcBalance[user] = btcBalance[user] - btc;\n        ethBalance[user] = ethBalance[user] - eth;\n        shibaBalance[user] = shibaBalance[user] - shiba;\n        xrpBalance[user] = xrpBalance[user] - xrp;\n        ltcBalance[user] = ltcBalance[user] - ltc;\n        daiBalance[user] = daiBalance[user] - dai;\n        lunaBalance[user] = lunaBalance[user] - luna;\n        linkBalance[user] = linkBalance[user] - link;\n        uniBalance[user] = uniBalance[user] - uni;\n        stethBalance[user] = stethBalance[user] - steth;\n    }\n\n    function investInFundDefi() public payable {\n        // approve\n        defiToken.approve(address(this), msg.value);\n\n        // update rate\n        updateRate(100, 100);\n\n        uint256[] memory crpyto1Amount;\n        uint256[] memory crpyto2Amount;\n        uint256[] memory crpyto3Amount;\n        uint256[] memory crpyto4Amount;\n        uint256[] memory crpyto5Amount;\n        uint256[] memory crpyto6Amount;\n        uint256[] memory crpyto7Amount;\n        uint256[] memory crpyto8Amount;\n        uint256[] memory crpyto9Amount;\n        uint256[] memory crpyto10Amount;\n\n        uint256 deadline = block.timestamp + 15; // using now for convenience, for mainnet pass deadline from frontend!\n\n        crpyto1Amount = pancakeSwapRouter.swapExactETHForTokens{\n            value: msg.value / 10\n        }(0, getPathForETH(crypto1), vault, deadline);\n\n        crpyto2Amount = pancakeSwapRouter.swapExactETHForTokens{\n            value: msg.value / 10\n        }(0, getPathForETH(crypto2), vault, deadline);\n\n        crpyto3Amount = pancakeSwapRouter.swapExactETHForTokens{\n            value: msg.value / 10\n        }(0, getPathForETH(crypto3), vault, deadline);\n\n        crpyto4Amount = pancakeSwapRouter.swapExactETHForTokens{\n            value: msg.value / 10\n        }(0, getPathForETH(crypto4), vault, deadline);\n\n        crpyto5Amount = pancakeSwapRouter.swapExactETHForTokens{\n            value: msg.value / 10\n        }(0, getPathForETH(crypto5), vault, deadline);\n\n        crpyto6Amount = pancakeSwapRouter.swapExactETHForTokens{\n            value: msg.value / 10\n        }(0, getPathForETH(crypto6), vault, deadline);\n\n        crpyto7Amount = pancakeSwapRouter.swapExactETHForTokens{\n            value: msg.value / 10\n        }(0, getPathForETH(crypto7), vault, deadline);\n\n        crpyto8Amount = pancakeSwapRouter.swapExactETHForTokens{\n            value: msg.value / 10\n        }(0, getPathForETH(crypto8), vault, deadline);\n\n        crpyto9Amount = pancakeSwapRouter.swapExactETHForTokens{\n            value: msg.value / 10\n        }(0, getPathForETH(crypto9), vault, deadline);\n\n        crpyto10Amount = pancakeSwapRouter.swapExactETHForTokens{\n            value: msg.value / 10\n        }(0, getPathForETH(crypto10), vault, deadline);\n\n        setUpDataDeFi(\n            crpyto1Amount[1],\n            crpyto2Amount[1],\n            crpyto3Amount[1],\n            crpyto4Amount[1],\n            crpyto5Amount[1],\n            crpyto6Amount[1],\n            crpyto7Amount[1],\n            crpyto8Amount[1],\n            crpyto9Amount[1],\n            crpyto10Amount[1],\n            msg.sender\n        );\n        uint256 cryptoAmount = msg.value;\n        uint256 tokenAmount = cryptoAmount.mul(currentRate.numerator).div(\n            currentRate.denominator\n        );\n        defiToken.mint(msg.sender, tokenAmount);\n        // refund leftover ETH to user\n        (bool success, ) = msg.sender.call{value: address(this).balance}(\"\");\n        require(success, \"refund failed\");\n    }\n\n    function withdrawFromFundTOPTokens(uint256 tokenAmount, uint256 percentage)\n        public\n        payable\n    {\n        require(percentage > 0 && percentage <= 100);\n\n        // IDT Token Burn\n        TransferHelper.safeTransferFrom(\n            address(defiToken),\n            msg.sender,\n            address(this),\n            tokenAmount\n        );\n        TransferHelper.safeApprove(\n            address(defiToken),\n            address(this),\n            tokenAmount\n        );\n\n        defiToken.burn(address(this), tokenAmount);\n        // -------------------------------------------------------------------------------------------- //\n\n        //Getting Investment Back From Vault to Contract\n\n        uint256 amount1Per = btcBalance[msg.sender].mul(percentage);\n        uint256 amount2Per = ethBalance[msg.sender].mul(percentage);\n        uint256 amount3Per = shibaBalance[msg.sender].mul(percentage);\n        uint256 amount4Per = xrpBalance[msg.sender].mul(percentage);\n        uint256 amount5Per = ltcBalance[msg.sender].mul(percentage);\n        uint256 amount6Per = daiBalance[msg.sender].mul(percentage);\n        uint256 amount7Per = lunaBalance[msg.sender].mul(percentage);\n        uint256 amount8Per = linkBalance[msg.sender].mul(percentage);\n        uint256 amount9Per = uniBalance[msg.sender].mul(percentage);\n        uint256 amount10Per = stethBalance[msg.sender].mul(percentage);\n\n        uint256 amount1 = amount1Per.div(100);\n        uint256 amount2 = amount2Per.div(100);\n        uint256 amount3 = amount3Per.div(100);\n        uint256 amount4 = amount4Per.div(100);\n        uint256 amount5 = amount5Per.div(100);\n        uint256 amount6 = amount6Per.div(100);\n        uint256 amount7 = amount7Per.div(100);\n        uint256 amount8 = amount8Per.div(100);\n        uint256 amount9 = amount9Per.div(100);\n        uint256 amount10 = amount10Per.div(100);\n\n        TransferHelper.safeTransferFrom(\n            address(crypto1),\n            vault,\n            address(this),\n            amount1\n        );\n        TransferHelper.safeApprove(\n            address(crypto1),\n            address(pancakeSwapRouter),\n            amount1\n        );\n\n        TransferHelper.safeTransferFrom(\n            address(crypto2),\n            vault,\n            address(this),\n            amount2\n        );\n        TransferHelper.safeApprove(\n            address(crypto2),\n            address(pancakeSwapRouter),\n            amount2\n        );\n\n        TransferHelper.safeTransferFrom(\n            address(crypto3),\n            vault,\n            address(this),\n            amount3\n        );\n        TransferHelper.safeApprove(\n            address(crypto3),\n            address(pancakeSwapRouter),\n            amount3\n        );\n\n        TransferHelper.safeTransferFrom(\n            address(crypto4),\n            vault,\n            address(this),\n            amount4\n        );\n        TransferHelper.safeApprove(\n            address(crypto4),\n            address(pancakeSwapRouter),\n            amount4\n        );\n\n        TransferHelper.safeTransferFrom(\n            address(crypto5),\n            vault,\n            address(this),\n            amount5\n        );\n        TransferHelper.safeApprove(\n            address(crypto5),\n            address(pancakeSwapRouter),\n            amount6\n        );\n\n        TransferHelper.safeTransferFrom(\n            address(crypto6),\n            vault,\n            address(this),\n            amount6\n        );\n        TransferHelper.safeApprove(\n            address(crypto6),\n            address(pancakeSwapRouter),\n            amount6\n        );\n\n        TransferHelper.safeTransferFrom(\n            address(crypto7),\n            vault,\n            address(this),\n            amount7\n        );\n        TransferHelper.safeApprove(\n            address(crypto7),\n            address(pancakeSwapRouter),\n            amount7\n        );\n\n        TransferHelper.safeTransferFrom(\n            address(crypto8),\n            vault,\n            address(this),\n            amount8\n        );\n        TransferHelper.safeApprove(\n            address(crypto8),\n            address(pancakeSwapRouter),\n            amount8\n        );\n\n        TransferHelper.safeTransferFrom(\n            address(crypto9),\n            vault,\n            address(this),\n            amount9\n        );\n        TransferHelper.safeApprove(\n            address(crypto9),\n            address(pancakeSwapRouter),\n            amount9\n        );\n\n        TransferHelper.safeTransferFrom(\n            address(crypto10),\n            vault,\n            address(this),\n            amount10\n        );\n        TransferHelper.safeApprove(\n            address(crypto10),\n            address(pancakeSwapRouter),\n            amount10\n        );\n\n        // ------------------------------------------------------------------------------------------------ //\n\n        // Converting back to BNB\n\n        uint256 deadline = block.timestamp + 15;\n\n        pancakeSwapRouter.swapExactTokensForETH(\n            amount1,\n            0,\n            getPathForToken(crypto1),\n            msg.sender,\n            deadline\n        );\n        pancakeSwapRouter.swapExactTokensForETH(\n            amount2,\n            0,\n            getPathForToken(crypto2),\n            msg.sender,\n            deadline\n        );\n        pancakeSwapRouter.swapExactTokensForETH(\n            amount3,\n            0,\n            getPathForToken(crypto3),\n            msg.sender,\n            deadline\n        );\n        pancakeSwapRouter.swapExactTokensForETH(\n            amount4,\n            0,\n            getPathForToken(crypto4),\n            msg.sender,\n            deadline\n        );\n        pancakeSwapRouter.swapExactTokensForETH(\n            amount5,\n            0,\n            getPathForToken(crypto5),\n            msg.sender,\n            deadline\n        );\n        pancakeSwapRouter.swapExactTokensForETH(\n            amount6,\n            0,\n            getPathForToken(crypto6),\n            msg.sender,\n            deadline\n        );\n        pancakeSwapRouter.swapExactTokensForETH(\n            amount7,\n            0,\n            getPathForToken(crypto7),\n            msg.sender,\n            deadline\n        );\n        pancakeSwapRouter.swapExactTokensForETH(\n            amount8,\n            0,\n            getPathForToken(crypto8),\n            msg.sender,\n            deadline\n        );\n        pancakeSwapRouter.swapExactTokensForETH(\n            amount9,\n            0,\n            getPathForToken(crypto9),\n            msg.sender,\n            deadline\n        );\n        pancakeSwapRouter.swapExactTokensForETH(\n            amount10,\n            0,\n            getPathForToken(crypto10),\n            msg.sender,\n            deadline\n        );\n\n        editDataDeFi(\n            amount1,\n            amount2,\n            amount3,\n            amount4,\n            amount5,\n            amount6,\n            amount7,\n            amount8,\n            amount9,\n            amount10,\n            msg.sender\n        );\n    }\n\n    // function addLiquidity() public payable{\n    //   uint deadline = block.timestamp + 15;\n    //   token.approve(pancakeSwapAddress,1000000000000000000000000000);\n    //   // pancakeSwapRouter.addLiquidityEth{value: msg.value}();\n    // }\n    function getPathForETH(address crypto)\n        public\n        view\n        returns (address[] memory)\n    {\n        address[] memory path = new address[](2);\n        path[0] = pancakeSwapRouter.WETH();\n        path[1] = crypto;\n        return path;\n    }\n\n    function getPathForToken(address token)\n        public\n        view\n        returns (address[] memory)\n    {\n        address[] memory path = new address[](2);\n        path[0] = token;\n        path[1] = pancakeSwapRouter.WETH();\n        return path;\n    }\n\n    function getETH() public view returns (address) {\n        return pancakeSwapRouter.WETH();\n    }\n\n    // important to receive ETH\n    receive() external payable {}\n}\n",
  "sourcePath": "/Users/navinalang/Navina-workgroup/05_create_and_burn_testnet/contracts/IndexSwap.sol",
  "compiler": {
    "name": "solc",
    "version": "0.8.0+commit.c7dfd78e.Emscripten.clang"
  },
  "schemaVersion": "3.4.6",
  "updatedAt": "2022-04-12T13:53:40.103Z",
  "devdoc": {
    "kind": "dev",
    "methods": {},
    "version": 1
  },
  "userdoc": {
    "kind": "user",
    "methods": {},
    "version": 1
  }
}